{
  "_format": "hh-sol-artifact-1",
  "contractName": "TokenLock",
  "sourceName": "contracts/TokenLock.sol",
  "abi": [
    {
      "inputs": [],
      "name": "ContractIsPaused",
      "type": "error"
    },
    {
      "inputs": [],
      "name": "ContractNotApproved",
      "type": "error"
    },
    {
      "inputs": [],
      "name": "LockPeriodCannotBeZero",
      "type": "error"
    },
    {
      "inputs": [],
      "name": "NoTokenIdSelected",
      "type": "error"
    },
    {
      "inputs": [],
      "name": "NotEnoughAllowance",
      "type": "error"
    },
    {
      "inputs": [],
      "name": "insufficientBalance",
      "type": "error"
    },
    {
      "inputs": [],
      "name": "lengthsNotEqual",
      "type": "error"
    },
    {
      "inputs": [],
      "name": "notTime",
      "type": "error"
    },
    {
      "inputs": [],
      "name": "notYours",
      "type": "error"
    },
    {
      "anonymous": false,
      "inputs": [
        {
          "indexed": false,
          "internalType": "address",
          "name": "token",
          "type": "address"
        },
        {
          "indexed": false,
          "internalType": "address",
          "name": "owner",
          "type": "address"
        },
        {
          "indexed": false,
          "internalType": "uint256",
          "name": "tokenID",
          "type": "uint256"
        },
        {
          "indexed": false,
          "internalType": "uint256",
          "name": "amount",
          "type": "uint256"
        },
        {
          "indexed": false,
          "internalType": "uint256",
          "name": "timestamp",
          "type": "uint256"
        }
      ],
      "name": "ERC1155Deposite",
      "type": "event"
    },
    {
      "anonymous": false,
      "inputs": [
        {
          "indexed": false,
          "internalType": "address",
          "name": "token",
          "type": "address"
        },
        {
          "indexed": false,
          "internalType": "address",
          "name": "owner",
          "type": "address"
        },
        {
          "indexed": false,
          "internalType": "uint256",
          "name": "tokenID",
          "type": "uint256"
        },
        {
          "indexed": false,
          "internalType": "uint256",
          "name": "amount",
          "type": "uint256"
        }
      ],
      "name": "ERC1155Withdrawal",
      "type": "event"
    },
    {
      "anonymous": false,
      "inputs": [
        {
          "indexed": false,
          "internalType": "address",
          "name": "token",
          "type": "address"
        },
        {
          "indexed": false,
          "internalType": "address",
          "name": "owner",
          "type": "address"
        },
        {
          "indexed": false,
          "internalType": "uint256",
          "name": "amount",
          "type": "uint256"
        },
        {
          "indexed": false,
          "internalType": "uint256",
          "name": "timestamp",
          "type": "uint256"
        }
      ],
      "name": "ERC20Deposite",
      "type": "event"
    },
    {
      "anonymous": false,
      "inputs": [
        {
          "indexed": false,
          "internalType": "address",
          "name": "token",
          "type": "address"
        },
        {
          "indexed": false,
          "internalType": "address",
          "name": "owner",
          "type": "address"
        },
        {
          "indexed": false,
          "internalType": "uint256",
          "name": "amount",
          "type": "uint256"
        }
      ],
      "name": "ERC20Withdrawal",
      "type": "event"
    },
    {
      "anonymous": false,
      "inputs": [
        {
          "indexed": false,
          "internalType": "address",
          "name": "token",
          "type": "address"
        },
        {
          "indexed": false,
          "internalType": "address",
          "name": "owner",
          "type": "address"
        },
        {
          "indexed": false,
          "internalType": "uint256",
          "name": "tokenID",
          "type": "uint256"
        },
        {
          "indexed": false,
          "internalType": "uint256",
          "name": "timestamp",
          "type": "uint256"
        }
      ],
      "name": "ERC721Deposite",
      "type": "event"
    },
    {
      "anonymous": false,
      "inputs": [
        {
          "indexed": false,
          "internalType": "address",
          "name": "token",
          "type": "address"
        },
        {
          "indexed": false,
          "internalType": "address",
          "name": "owner",
          "type": "address"
        },
        {
          "indexed": false,
          "internalType": "uint256",
          "name": "tokenID",
          "type": "uint256"
        }
      ],
      "name": "ERC721Withdrawal",
      "type": "event"
    },
    {
      "anonymous": false,
      "inputs": [
        {
          "indexed": true,
          "internalType": "address",
          "name": "previousOwner",
          "type": "address"
        },
        {
          "indexed": true,
          "internalType": "address",
          "name": "newOwner",
          "type": "address"
        }
      ],
      "name": "OwnershipTransferred",
      "type": "event"
    },
    {
      "inputs": [
        {
          "internalType": "address",
          "name": "token",
          "type": "address"
        },
        {
          "internalType": "uint256[]",
          "name": "tokenID",
          "type": "uint256[]"
        }
      ],
      "name": "bulkWithdrawERC721",
      "outputs": [],
      "stateMutability": "nonpayable",
      "type": "function"
    },
    {
      "inputs": [
        {
          "internalType": "address",
          "name": "token",
          "type": "address"
        },
        {
          "internalType": "uint256[]",
          "name": "tokenID",
          "type": "uint256[]"
        },
        {
          "internalType": "uint256[]",
          "name": "amount",
          "type": "uint256[]"
        },
        {
          "internalType": "uint128",
          "name": "lockPeriod",
          "type": "uint128"
        }
      ],
      "name": "depositeBulkERC11155",
      "outputs": [],
      "stateMutability": "nonpayable",
      "type": "function"
    },
    {
      "inputs": [
        {
          "internalType": "address[]",
          "name": "token",
          "type": "address[]"
        },
        {
          "internalType": "uint256[]",
          "name": "amount",
          "type": "uint256[]"
        },
        {
          "internalType": "uint128",
          "name": "lockPeriod",
          "type": "uint128"
        }
      ],
      "name": "depositeBulkERC20",
      "outputs": [],
      "stateMutability": "nonpayable",
      "type": "function"
    },
    {
      "inputs": [
        {
          "internalType": "address",
          "name": "token",
          "type": "address"
        },
        {
          "internalType": "uint256[]",
          "name": "tokenID",
          "type": "uint256[]"
        },
        {
          "internalType": "uint128",
          "name": "lockPeriod",
          "type": "uint128"
        }
      ],
      "name": "depositeBulkERC721",
      "outputs": [],
      "stateMutability": "nonpayable",
      "type": "function"
    },
    {
      "inputs": [
        {
          "internalType": "address",
          "name": "_token",
          "type": "address"
        },
        {
          "internalType": "uint256",
          "name": "tokenID",
          "type": "uint256"
        },
        {
          "internalType": "uint256",
          "name": "amount",
          "type": "uint256"
        },
        {
          "internalType": "uint128",
          "name": "_lockPeriod",
          "type": "uint128"
        }
      ],
      "name": "depositeERC1155",
      "outputs": [],
      "stateMutability": "nonpayable",
      "type": "function"
    },
    {
      "inputs": [
        {
          "internalType": "address",
          "name": "_token",
          "type": "address"
        },
        {
          "internalType": "uint256",
          "name": "amount",
          "type": "uint256"
        },
        {
          "internalType": "uint128",
          "name": "lockPeriod",
          "type": "uint128"
        }
      ],
      "name": "depositeERC20",
      "outputs": [],
      "stateMutability": "nonpayable",
      "type": "function"
    },
    {
      "inputs": [
        {
          "internalType": "address",
          "name": "_token",
          "type": "address"
        },
        {
          "internalType": "uint256",
          "name": "tokenID",
          "type": "uint256"
        },
        {
          "internalType": "uint256",
          "name": "_lockPeriod",
          "type": "uint256"
        }
      ],
      "name": "depositeERC721",
      "outputs": [],
      "stateMutability": "nonpayable",
      "type": "function"
    },
    {
      "inputs": [
        {
          "internalType": "address",
          "name": "token",
          "type": "address"
        },
        {
          "internalType": "uint256[]",
          "name": "tokenID",
          "type": "uint256[]"
        },
        {
          "internalType": "uint256[]",
          "name": "amount",
          "type": "uint256[]"
        }
      ],
      "name": "erc1155BulkWithdrawal",
      "outputs": [],
      "stateMutability": "nonpayable",
      "type": "function"
    },
    {
      "inputs": [
        {
          "internalType": "address[]",
          "name": "token",
          "type": "address[]"
        },
        {
          "internalType": "uint256[]",
          "name": "amount",
          "type": "uint256[]"
        }
      ],
      "name": "erc20BulkWithdrawal",
      "outputs": [],
      "stateMutability": "nonpayable",
      "type": "function"
    },
    {
      "inputs": [
        {
          "internalType": "bool",
          "name": "_status",
          "type": "bool"
        }
      ],
      "name": "flipContractStatus",
      "outputs": [],
      "stateMutability": "nonpayable",
      "type": "function"
    },
    {
      "inputs": [
        {
          "internalType": "address",
          "name": "contractAddress",
          "type": "address"
        },
        {
          "internalType": "address",
          "name": "account",
          "type": "address"
        },
        {
          "internalType": "uint256",
          "name": "tokenID",
          "type": "uint256"
        }
      ],
      "name": "getERC1155Info",
      "outputs": [
        {
          "components": [
            {
              "internalType": "uint256",
              "name": "tokenBal",
              "type": "uint256"
            },
            {
              "internalType": "uint128",
              "name": "lockPeriod",
              "type": "uint128"
            },
            {
              "internalType": "uint128",
              "name": "lockTime",
              "type": "uint128"
            }
          ],
          "internalType": "struct TokenLock.MyERC1155",
          "name": "",
          "type": "tuple"
        }
      ],
      "stateMutability": "view",
      "type": "function"
    },
    {
      "inputs": [
        {
          "internalType": "address",
          "name": "contractAddress",
          "type": "address"
        },
        {
          "internalType": "address",
          "name": "account",
          "type": "address"
        }
      ],
      "name": "getERC20Info",
      "outputs": [
        {
          "components": [
            {
              "internalType": "uint256",
              "name": "tokenBalance",
              "type": "uint256"
            },
            {
              "internalType": "uint128",
              "name": "lockTime",
              "type": "uint128"
            },
            {
              "internalType": "uint128",
              "name": "lockPeriod",
              "type": "uint128"
            }
          ],
          "internalType": "struct TokenLock.MyERC20",
          "name": "",
          "type": "tuple"
        }
      ],
      "stateMutability": "view",
      "type": "function"
    },
    {
      "inputs": [
        {
          "internalType": "address",
          "name": "contractAddress",
          "type": "address"
        },
        {
          "internalType": "uint256",
          "name": "token",
          "type": "uint256"
        }
      ],
      "name": "getERC721Info",
      "outputs": [
        {
          "components": [
            {
              "internalType": "address",
              "name": "owner",
              "type": "address"
            },
            {
              "internalType": "uint128",
              "name": "lockTime",
              "type": "uint128"
            },
            {
              "internalType": "uint128",
              "name": "lockPeriod",
              "type": "uint128"
            }
          ],
          "internalType": "struct TokenLock.MyERC721",
          "name": "",
          "type": "tuple"
        }
      ],
      "stateMutability": "view",
      "type": "function"
    },
    {
      "inputs": [
        {
          "internalType": "address",
          "name": "",
          "type": "address"
        },
        {
          "internalType": "address",
          "name": "",
          "type": "address"
        },
        {
          "internalType": "uint256",
          "name": "",
          "type": "uint256"
        },
        {
          "internalType": "uint256",
          "name": "",
          "type": "uint256"
        },
        {
          "internalType": "bytes",
          "name": "",
          "type": "bytes"
        }
      ],
      "name": "onERC1155Received",
      "outputs": [
        {
          "internalType": "bytes4",
          "name": "",
          "type": "bytes4"
        }
      ],
      "stateMutability": "nonpayable",
      "type": "function"
    },
    {
      "inputs": [],
      "name": "owner",
      "outputs": [
        {
          "internalType": "address",
          "name": "",
          "type": "address"
        }
      ],
      "stateMutability": "view",
      "type": "function"
    },
    {
      "inputs": [],
      "name": "renounceOwnership",
      "outputs": [],
      "stateMutability": "nonpayable",
      "type": "function"
    },
    {
      "inputs": [
        {
          "internalType": "address",
          "name": "newOwner",
          "type": "address"
        }
      ],
      "name": "transferOwnership",
      "outputs": [],
      "stateMutability": "nonpayable",
      "type": "function"
    },
    {
      "inputs": [
        {
          "internalType": "address",
          "name": "token",
          "type": "address"
        },
        {
          "internalType": "uint256",
          "name": "tokenID",
          "type": "uint256"
        },
        {
          "internalType": "uint256",
          "name": "amount",
          "type": "uint256"
        }
      ],
      "name": "withdrawERC1155",
      "outputs": [],
      "stateMutability": "nonpayable",
      "type": "function"
    },
    {
      "inputs": [
        {
          "internalType": "address",
          "name": "token",
          "type": "address"
        },
        {
          "internalType": "uint256",
          "name": "tokenID",
          "type": "uint256"
        }
      ],
      "name": "withdrawERC721",
      "outputs": [],
      "stateMutability": "nonpayable",
      "type": "function"
    },
    {
      "inputs": [
        {
          "internalType": "address",
          "name": "token",
          "type": "address"
        },
        {
          "internalType": "uint256",
          "name": "amount",
          "type": "uint256"
        }
      ],
      "name": "withdrawErc20",
      "outputs": [],
      "stateMutability": "nonpayable",
      "type": "function"
    }
  ],
  "bytecode": "0x608060405260008060146101000a81548160ff0219169083151502179055503480156200002b57600080fd5b506200004c620000406200005260201b60201c565b6200005a60201b60201c565b6200011e565b600033905090565b60008060009054906101000a900473ffffffffffffffffffffffffffffffffffffffff169050816000806101000a81548173ffffffffffffffffffffffffffffffffffffffff021916908373ffffffffffffffffffffffffffffffffffffffff1602179055508173ffffffffffffffffffffffffffffffffffffffff168173ffffffffffffffffffffffffffffffffffffffff167f8be0079c531659141344cd1fd0a4f28419497f9722a3daafe3b4186f6b6457e060405160405180910390a35050565b613630806200012e6000396000f3fe608060405234801561001057600080fd5b506004361061012c5760003560e01c8063921a92bb116100ad578063f1309fe711610071578063f1309fe714610301578063f23a6e611461031d578063f2fde38b1461034d578063f3e414f814610369578063f89df61a146103855761012c565b8063921a92bb1461027557806396a45b37146102915780639d4a1e85146102ad578063bd1f4b52146102c9578063efea2824146102e55761012c565b80634ecce293116100f45780634ecce293146101e55780636c23745914610201578063715018a61461021d5780637216ee8a146102275780638da5cb5b146102575761012c565b8063072a4577146101315780631f3cfe581461014d5780632779e43d1461017d57806339ead720146101ad5780633c459967146101c9575b600080fd5b61014b60048036038101906101469190612515565b6103a1565b005b6101676004803603810190610162919061262a565b61044a565b60405161017491906126e6565b60405180910390f35b61019760048036038101906101929190612701565b61059f565b6040516101a491906127a5565b60405180910390f35b6101c760048036038101906101c291906127c0565b6106e6565b005b6101e360048036038101906101de919061283f565b6109b0565b005b6101ff60048036038101906101fa91906128d4565b610a5b565b005b61021b6004803603810190610216919061296c565b610adb565b005b610225610b00565b005b610241600480360381019061023c9190612999565b610b14565b60405161024e9190612a1b565b60405180910390f35b61025f610c49565b60405161026c9190612a45565b60405180910390f35b61028f600480360381019061028a9190612a60565b610c72565b005b6102ab60048036038101906102a69190612af5565b610d0f565b005b6102c760048036038101906102c29190612b9c565b610dae565b005b6102e360048036038101906102de919061262a565b610e04565b005b6102ff60048036038101906102fa91906127c0565b611187565b005b61031b60048036038101906103169190612c10565b6115db565b005b61033760048036038101906103329190612da4565b611aa5565b6040516103449190612e76565b60405180910390f35b61036760048036038101906103629190612e91565b611aba565b005b610383600480360381019061037e919061262a565b611b3e565b005b61039f600480360381019061039a9190612ebe565b611ee3565b005b8383905082829050146103e0576040517f51ebe3c100000000000000000000000000000000000000000000000000000000815260040160405180910390fd5b60005b848490508110156104435761043885858381811061040457610403612f25565b5b90506020020160208101906104199190612e91565b84848481811061042c5761042b612f25565b5b90506020020135610e04565b8060010190506103e3565b5050505050565b610452612361565b600160008473ffffffffffffffffffffffffffffffffffffffff1673ffffffffffffffffffffffffffffffffffffffff16815260200190815260200160002060008381526020019081526020016000206040518060600160405290816000820160009054906101000a900473ffffffffffffffffffffffffffffffffffffffff1673ffffffffffffffffffffffffffffffffffffffff1673ffffffffffffffffffffffffffffffffffffffff1681526020016001820160009054906101000a90046fffffffffffffffffffffffffffffffff166fffffffffffffffffffffffffffffffff166fffffffffffffffffffffffffffffffff1681526020016001820160109054906101000a90046fffffffffffffffffffffffffffffffff166fffffffffffffffffffffffffffffffff166fffffffffffffffffffffffffffffffff1681525050905092915050565b6105a76123bc565b600360008573ffffffffffffffffffffffffffffffffffffffff1673ffffffffffffffffffffffffffffffffffffffff16815260200190815260200160002060008473ffffffffffffffffffffffffffffffffffffffff1673ffffffffffffffffffffffffffffffffffffffff1681526020019081526020016000206000838152602001908152602001600020604051806060016040529081600082015481526020016001820160009054906101000a90046fffffffffffffffffffffffffffffffff166fffffffffffffffffffffffffffffffff166fffffffffffffffffffffffffffffffff1681526020016001820160109054906101000a90046fffffffffffffffffffffffffffffffff166fffffffffffffffffffffffffffffffff166fffffffffffffffffffffffffffffffff168152505090509392505050565b6000600360008573ffffffffffffffffffffffffffffffffffffffff1673ffffffffffffffffffffffffffffffffffffffff16815260200190815260200160002060003373ffffffffffffffffffffffffffffffffffffffff1673ffffffffffffffffffffffffffffffffffffffff1681526020019081526020016000206000848152602001908152602001600020905060008160010160109054906101000a90046fffffffffffffffffffffffffffffffff166fffffffffffffffffffffffffffffffff1690508160010160009054906101000a90046fffffffffffffffffffffffffffffffff166fffffffffffffffffffffffffffffffff1681426107ed9190612f83565b1015610825576040517fddb6dcad00000000000000000000000000000000000000000000000000000000815260040160405180910390fd5b8282600001541015610863576040517f47108e3e00000000000000000000000000000000000000000000000000000000815260040160405180910390fd5b8282600001600082825403925050819055506000826000015414156108fb5760008260010160006101000a8154816fffffffffffffffffffffffffffffffff02191690836fffffffffffffffffffffffffffffffff16021790555060008260010160106101000a8154816fffffffffffffffffffffffffffffffff02191690836fffffffffffffffffffffffffffffffff1602179055505b8473ffffffffffffffffffffffffffffffffffffffff1663f242432a303387876040518563ffffffff1660e01b815260040161093a9493929190612ffd565b600060405180830381600087803b15801561095457600080fd5b505af1158015610968573d6000803e3d6000fd5b505050507feb12d491e2ce9cd94fb842ae67a291d05ebce5061338e29f829acf27bd7f2932853386866040516109a19493929190613055565b60405180910390a15050505050565b8282905085859050146109ef576040517f51ebe3c100000000000000000000000000000000000000000000000000000000815260040160405180910390fd5b60005b85859050811015610a5357610a48868683818110610a1357610a12612f25565b5b9050602002016020810190610a289190612e91565b858584818110610a3b57610a3a612f25565b5b90506020020135846115db565b8060010190506109f2565b505050505050565b6000828290501415610a99576040517f4f11a6d100000000000000000000000000000000000000000000000000000000815260040160405180910390fd5b60005b82829050811015610ad557610aca84848484818110610abe57610abd612f25565b5b90506020020135611b3e565b806001019050610a9c565b50505050565b610ae3612217565b80600060146101000a81548160ff02191690831515021790555050565b610b08612217565b610b126000612295565b565b610b1c612401565b600260008473ffffffffffffffffffffffffffffffffffffffff1673ffffffffffffffffffffffffffffffffffffffff16815260200190815260200160002060008373ffffffffffffffffffffffffffffffffffffffff1673ffffffffffffffffffffffffffffffffffffffff168152602001908152602001600020604051806060016040529081600082015481526020016001820160009054906101000a90046fffffffffffffffffffffffffffffffff166fffffffffffffffffffffffffffffffff166fffffffffffffffffffffffffffffffff1681526020016001820160109054906101000a90046fffffffffffffffffffffffffffffffff166fffffffffffffffffffffffffffffffff166fffffffffffffffffffffffffffffffff1681525050905092915050565b60008060009054906101000a900473ffffffffffffffffffffffffffffffffffffffff16905090565b838390508282905014610cb1576040517f51ebe3c100000000000000000000000000000000000000000000000000000000815260040160405180910390fd5b60005b84849050811015610d0757610cfc86868684818110610cd657610cd5612f25565b5b90506020020135858585818110610cf057610cef612f25565b5b905060200201356106e6565b806001019050610cb4565b505050505050565b848490508383905014610d4e576040517f51ebe3c100000000000000000000000000000000000000000000000000000000815260040160405180910390fd5b60005b85859050811015610da557610d9a87878784818110610d7357610d72612f25565b5b90506020020135868685818110610d8d57610d8c612f25565b5b9050602002013585611ee3565b806001019050610d51565b50505050505050565b60005b83839050811015610dfd57610df285858584818110610dd357610dd2612f25565b5b90506020020135846fffffffffffffffffffffffffffffffff16611187565b806001019050610db1565b5050505050565b6000600260008473ffffffffffffffffffffffffffffffffffffffff1673ffffffffffffffffffffffffffffffffffffffff16815260200190815260200160002060003373ffffffffffffffffffffffffffffffffffffffff1673ffffffffffffffffffffffffffffffffffffffff168152602001908152602001600020905060008160000154905060008473ffffffffffffffffffffffffffffffffffffffff1663313ce5676040518163ffffffff1660e01b815260040160206040518083038186803b158015610ed557600080fd5b505afa158015610ee9573d6000803e3d6000fd5b505050506040513d601f19601f82011682018060405250810190610f0d91906130d3565b600a610f199190613233565b90508260010160109054906101000a90046fffffffffffffffffffffffffffffffff166fffffffffffffffffffffffffffffffff168360010160009054906101000a90046fffffffffffffffffffffffffffffffff166fffffffffffffffffffffffffffffffff1642610f8c9190612f83565b1015610fc4576040517fddb6dcad00000000000000000000000000000000000000000000000000000000815260040160405180910390fd5b8084610fd0919061327e565b821015611009576040517f47108e3e00000000000000000000000000000000000000000000000000000000815260040160405180910390fd5b8383600001600082825403925050819055506000836000015414156110a15760008360010160106101000a8154816fffffffffffffffffffffffffffffffff02191690836fffffffffffffffffffffffffffffffff16021790555060008360010160006101000a8154816fffffffffffffffffffffffffffffffff02191690836fffffffffffffffffffffffffffffffff1602179055505b8473ffffffffffffffffffffffffffffffffffffffff1663a9059cbb3383876110ca919061327e565b6040518363ffffffff1660e01b81526004016110e79291906132d8565b602060405180830381600087803b15801561110157600080fd5b505af1158015611115573d6000803e3d6000fd5b505050506040513d601f19601f820116820180604052508101906111399190613316565b507f2fbb3e8dc2807d6a61feb98fc2120153f77b2c0d25ef6272e1756935dd62c84785338387611169919061327e565b60405161117893929190613343565b60405180910390a15050505050565b600060149054906101000a900460ff16156111ce576040517f6d39fcd000000000000000000000000000000000000000000000000000000000815260040160405180910390fd5b60008390508073ffffffffffffffffffffffffffffffffffffffff1663e985e9c533306040518363ffffffff1660e01b815260040161120e92919061337a565b60206040518083038186803b15801561122657600080fd5b505afa15801561123a573d6000803e3d6000fd5b505050506040513d601f19601f8201168201806040525081019061125e9190613316565b611294576040517fe22ef0a000000000000000000000000000000000000000000000000000000000815260040160405180910390fd5b60008214156112cf576040517f92f83d9e00000000000000000000000000000000000000000000000000000000815260040160405180910390fd5b3373ffffffffffffffffffffffffffffffffffffffff168173ffffffffffffffffffffffffffffffffffffffff16636352211e856040518263ffffffff1660e01b815260040161131f91906133a3565b60206040518083038186803b15801561133757600080fd5b505afa15801561134b573d6000803e3d6000fd5b505050506040513d601f19601f8201168201806040525081019061136f91906133d3565b73ffffffffffffffffffffffffffffffffffffffff16146113bc576040517fdba304a800000000000000000000000000000000000000000000000000000000815260040160405180910390fd5b8073ffffffffffffffffffffffffffffffffffffffff166323b872dd3330866040518463ffffffff1660e01b81526004016113f993929190613343565b600060405180830381600087803b15801561141357600080fd5b505af1158015611427573d6000803e3d6000fd5b5050505060405180606001604052803373ffffffffffffffffffffffffffffffffffffffff168152602001426fffffffffffffffffffffffffffffffff168152602001836fffffffffffffffffffffffffffffffff16815250600160008673ffffffffffffffffffffffffffffffffffffffff1673ffffffffffffffffffffffffffffffffffffffff168152602001908152602001600020600085815260200190815260200160002060008201518160000160006101000a81548173ffffffffffffffffffffffffffffffffffffffff021916908373ffffffffffffffffffffffffffffffffffffffff16021790555060208201518160010160006101000a8154816fffffffffffffffffffffffffffffffff02191690836fffffffffffffffffffffffffffffffff16021790555060408201518160010160106101000a8154816fffffffffffffffffffffffffffffffff02191690836fffffffffffffffffffffffffffffffff1602179055509050507fab157d1de51e01e68e04650e60492d578b20dac598827b115b4d99787b921a5d843385426040516115cd9493929190613055565b60405180910390a150505050565b600060149054906101000a900460ff1615611622576040517f6d39fcd000000000000000000000000000000000000000000000000000000000815260040160405180910390fd5b600083905060008173ffffffffffffffffffffffffffffffffffffffff1663313ce5676040518163ffffffff1660e01b815260040160206040518083038186803b15801561166f57600080fd5b505afa158015611683573d6000803e3d6000fd5b505050506040513d601f19601f820116820180604052508101906116a791906130d3565b600a6116b39190613233565b90506000836fffffffffffffffffffffffffffffffff161415611702576040517f92f83d9e00000000000000000000000000000000000000000000000000000000815260040160405180910390fd5b8173ffffffffffffffffffffffffffffffffffffffff1663dd62ed3e33306040518363ffffffff1660e01b815260040161173d92919061337a565b60206040518083038186803b15801561175557600080fd5b505afa158015611769573d6000803e3d6000fd5b505050506040513d601f19601f8201168201806040525081019061178d9190613415565b8185611799919061327e565b11156117d1576040517f4fd3af0700000000000000000000000000000000000000000000000000000000815260040160405180910390fd5b6000600260008773ffffffffffffffffffffffffffffffffffffffff1673ffffffffffffffffffffffffffffffffffffffff16815260200190815260200160002060003373ffffffffffffffffffffffffffffffffffffffff1673ffffffffffffffffffffffffffffffffffffffff1681526020019081526020016000209050818561185d919061327e565b8373ffffffffffffffffffffffffffffffffffffffff166370a08231336040518263ffffffff1660e01b81526004016118969190612a45565b60206040518083038186803b1580156118ae57600080fd5b505afa1580156118c2573d6000803e3d6000fd5b505050506040513d601f19601f820116820180604052508101906118e69190613415565b101561191e576040517f47108e3e00000000000000000000000000000000000000000000000000000000815260040160405180910390fd5b8273ffffffffffffffffffffffffffffffffffffffff166323b872dd33308589611948919061327e565b6040518463ffffffff1660e01b815260040161196693929190613343565b602060405180830381600087803b15801561198057600080fd5b505af1158015611994573d6000803e3d6000fd5b505050506040513d601f19601f820116820180604052508101906119b89190613316565b5081856119c5919061327e565b8160000160008282546119d89190613442565b92505081905550428160010160006101000a8154816fffffffffffffffffffffffffffffffff02191690836fffffffffffffffffffffffffffffffff160217905550838160010160106101000a8154816fffffffffffffffffffffffffffffffff02191690836fffffffffffffffffffffffffffffffff1602179055507f18063c8d2da0a3654aba244eee08e33d3f757c774a44bf3f5c80dc73c35c1b9d86338488611a84919061327e565b42604051611a959493929190613055565b60405180910390a1505050505050565b600063f23a6e6160e01b905095945050505050565b611ac2612217565b600073ffffffffffffffffffffffffffffffffffffffff168173ffffffffffffffffffffffffffffffffffffffff161415611b32576040517f08c379a0000000000000000000000000000000000000000000000000000000008152600401611b299061351b565b60405180910390fd5b611b3b81612295565b50565b6000600160008473ffffffffffffffffffffffffffffffffffffffff1673ffffffffffffffffffffffffffffffffffffffff168152602001908152602001600020600083815260200190815260200160002090503373ffffffffffffffffffffffffffffffffffffffff168160000160009054906101000a900473ffffffffffffffffffffffffffffffffffffffff1673ffffffffffffffffffffffffffffffffffffffff1614611c1b576040517fdba304a800000000000000000000000000000000000000000000000000000000815260040160405180910390fd5b8060010160109054906101000a90046fffffffffffffffffffffffffffffffff166fffffffffffffffffffffffffffffffff168160010160009054906101000a90046fffffffffffffffffffffffffffffffff166fffffffffffffffffffffffffffffffff1642611c8c9190612f83565b1015611cc4576040517fddb6dcad00000000000000000000000000000000000000000000000000000000815260040160405180910390fd5b8273ffffffffffffffffffffffffffffffffffffffff166323b872dd3033856040518463ffffffff1660e01b8152600401611d0193929190613343565b600060405180830381600087803b158015611d1b57600080fd5b505af1158015611d2f573d6000803e3d6000fd5b505050506040518060600160405280600073ffffffffffffffffffffffffffffffffffffffff16815260200160006fffffffffffffffffffffffffffffffff16815260200160006fffffffffffffffffffffffffffffffff16815250600160008573ffffffffffffffffffffffffffffffffffffffff1673ffffffffffffffffffffffffffffffffffffffff168152602001908152602001600020600084815260200190815260200160002060008201518160000160006101000a81548173ffffffffffffffffffffffffffffffffffffffff021916908373ffffffffffffffffffffffffffffffffffffffff16021790555060208201518160010160006101000a8154816fffffffffffffffffffffffffffffffff02191690836fffffffffffffffffffffffffffffffff16021790555060408201518160010160106101000a8154816fffffffffffffffffffffffffffffffff02191690836fffffffffffffffffffffffffffffffff1602179055509050507fdce1abc7607cf83c96953308072c045ec35d02fbf5777e7d0ec8b102cd89ff81833384604051611ed693929190613343565b60405180910390a1505050565b600060149054906101000a900460ff1615611f2a576040517f6d39fcd000000000000000000000000000000000000000000000000000000000815260040160405180910390fd5b60008490508073ffffffffffffffffffffffffffffffffffffffff1663e985e9c533306040518363ffffffff1660e01b8152600401611f6a92919061337a565b60206040518083038186803b158015611f8257600080fd5b505afa158015611f96573d6000803e3d6000fd5b505050506040513d601f19601f82011682018060405250810190611fba9190613316565b611ff0576040517fe22ef0a000000000000000000000000000000000000000000000000000000000815260040160405180910390fd5b6000826fffffffffffffffffffffffffffffffff16141561203d576040517f92f83d9e00000000000000000000000000000000000000000000000000000000815260040160405180910390fd5b6000600360008773ffffffffffffffffffffffffffffffffffffffff1673ffffffffffffffffffffffffffffffffffffffff16815260200190815260200160002060003373ffffffffffffffffffffffffffffffffffffffff1673ffffffffffffffffffffffffffffffffffffffff168152602001908152602001600020600086815260200190815260200160002090508173ffffffffffffffffffffffffffffffffffffffff1663f242432a333088886040518563ffffffff1660e01b815260040161210d9493929190612ffd565b600060405180830381600087803b15801561212757600080fd5b505af115801561213b573d6000803e3d6000fd5b50505050838160000160008282546121539190613442565b92505081905550828160010160006101000a8154816fffffffffffffffffffffffffffffffff02191690836fffffffffffffffffffffffffffffffff160217905550428160010160106101000a8154816fffffffffffffffffffffffffffffffff02191690836fffffffffffffffffffffffffffffffff1602179055507fcab5412dac89f5d42b62a58bd6df482b7d67584786686339271542412a1e8f6d863387874260405161220795949392919061353b565b60405180910390a1505050505050565b61221f612359565b73ffffffffffffffffffffffffffffffffffffffff1661223d610c49565b73ffffffffffffffffffffffffffffffffffffffff1614612293576040517f08c379a000000000000000000000000000000000000000000000000000000000815260040161228a906135da565b60405180910390fd5b565b60008060009054906101000a900473ffffffffffffffffffffffffffffffffffffffff169050816000806101000a81548173ffffffffffffffffffffffffffffffffffffffff021916908373ffffffffffffffffffffffffffffffffffffffff1602179055508173ffffffffffffffffffffffffffffffffffffffff168173ffffffffffffffffffffffffffffffffffffffff167f8be0079c531659141344cd1fd0a4f28419497f9722a3daafe3b4186f6b6457e060405160405180910390a35050565b600033905090565b6040518060600160405280600073ffffffffffffffffffffffffffffffffffffffff16815260200160006fffffffffffffffffffffffffffffffff16815260200160006fffffffffffffffffffffffffffffffff1681525090565b60405180606001604052806000815260200160006fffffffffffffffffffffffffffffffff16815260200160006fffffffffffffffffffffffffffffffff1681525090565b60405180606001604052806000815260200160006fffffffffffffffffffffffffffffffff16815260200160006fffffffffffffffffffffffffffffffff1681525090565b6000604051905090565b600080fd5b600080fd5b600080fd5b600080fd5b600080fd5b60008083601f84011261247f5761247e61245a565b5b8235905067ffffffffffffffff81111561249c5761249b61245f565b5b6020830191508360208202830111156124b8576124b7612464565b5b9250929050565b60008083601f8401126124d5576124d461245a565b5b8235905067ffffffffffffffff8111156124f2576124f161245f565b5b60208301915083602082028301111561250e5761250d612464565b5b9250929050565b6000806000806040858703121561252f5761252e612450565b5b600085013567ffffffffffffffff81111561254d5761254c612455565b5b61255987828801612469565b9450945050602085013567ffffffffffffffff81111561257c5761257b612455565b5b612588878288016124bf565b925092505092959194509250565b600073ffffffffffffffffffffffffffffffffffffffff82169050919050565b60006125c182612596565b9050919050565b6125d1816125b6565b81146125dc57600080fd5b50565b6000813590506125ee816125c8565b92915050565b6000819050919050565b612607816125f4565b811461261257600080fd5b50565b600081359050612624816125fe565b92915050565b6000806040838503121561264157612640612450565b5b600061264f858286016125df565b925050602061266085828601612615565b9150509250929050565b612673816125b6565b82525050565b60006fffffffffffffffffffffffffffffffff82169050919050565b61269e81612679565b82525050565b6060820160008201516126ba600085018261266a565b5060208201516126cd6020850182612695565b5060408201516126e06040850182612695565b50505050565b60006060820190506126fb60008301846126a4565b92915050565b60008060006060848603121561271a57612719612450565b5b6000612728868287016125df565b9350506020612739868287016125df565b925050604061274a86828701612615565b9150509250925092565b61275d816125f4565b82525050565b6060820160008201516127796000850182612754565b50602082015161278c6020850182612695565b50604082015161279f6040850182612695565b50505050565b60006060820190506127ba6000830184612763565b92915050565b6000806000606084860312156127d9576127d8612450565b5b60006127e7868287016125df565b93505060206127f886828701612615565b925050604061280986828701612615565b9150509250925092565b61281c81612679565b811461282757600080fd5b50565b60008135905061283981612813565b92915050565b60008060008060006060868803121561285b5761285a612450565b5b600086013567ffffffffffffffff81111561287957612878612455565b5b61288588828901612469565b9550955050602086013567ffffffffffffffff8111156128a8576128a7612455565b5b6128b4888289016124bf565b935093505060406128c78882890161282a565b9150509295509295909350565b6000806000604084860312156128ed576128ec612450565b5b60006128fb868287016125df565b935050602084013567ffffffffffffffff81111561291c5761291b612455565b5b612928868287016124bf565b92509250509250925092565b60008115159050919050565b61294981612934565b811461295457600080fd5b50565b60008135905061296681612940565b92915050565b60006020828403121561298257612981612450565b5b600061299084828501612957565b91505092915050565b600080604083850312156129b0576129af612450565b5b60006129be858286016125df565b92505060206129cf858286016125df565b9150509250929050565b6060820160008201516129ef6000850182612754565b506020820151612a026020850182612695565b506040820151612a156040850182612695565b50505050565b6000606082019050612a3060008301846129d9565b92915050565b612a3f816125b6565b82525050565b6000602082019050612a5a6000830184612a36565b92915050565b600080600080600060608688031215612a7c57612a7b612450565b5b6000612a8a888289016125df565b955050602086013567ffffffffffffffff811115612aab57612aaa612455565b5b612ab7888289016124bf565b9450945050604086013567ffffffffffffffff811115612ada57612ad9612455565b5b612ae6888289016124bf565b92509250509295509295909350565b60008060008060008060808789031215612b1257612b11612450565b5b6000612b2089828a016125df565b965050602087013567ffffffffffffffff811115612b4157612b40612455565b5b612b4d89828a016124bf565b9550955050604087013567ffffffffffffffff811115612b7057612b6f612455565b5b612b7c89828a016124bf565b93509350506060612b8f89828a0161282a565b9150509295509295509295565b60008060008060608587031215612bb657612bb5612450565b5b6000612bc4878288016125df565b945050602085013567ffffffffffffffff811115612be557612be4612455565b5b612bf1878288016124bf565b93509350506040612c048782880161282a565b91505092959194509250565b600080600060608486031215612c2957612c28612450565b5b6000612c37868287016125df565b9350506020612c4886828701612615565b9250506040612c598682870161282a565b9150509250925092565b600080fd5b6000601f19601f8301169050919050565b7f4e487b7100000000000000000000000000000000000000000000000000000000600052604160045260246000fd5b612cb182612c68565b810181811067ffffffffffffffff82111715612cd057612ccf612c79565b5b80604052505050565b6000612ce3612446565b9050612cef8282612ca8565b919050565b600067ffffffffffffffff821115612d0f57612d0e612c79565b5b612d1882612c68565b9050602081019050919050565b82818337600083830152505050565b6000612d47612d4284612cf4565b612cd9565b905082815260208101848484011115612d6357612d62612c63565b5b612d6e848285612d25565b509392505050565b600082601f830112612d8b57612d8a61245a565b5b8135612d9b848260208601612d34565b91505092915050565b600080600080600060a08688031215612dc057612dbf612450565b5b6000612dce888289016125df565b9550506020612ddf888289016125df565b9450506040612df088828901612615565b9350506060612e0188828901612615565b925050608086013567ffffffffffffffff811115612e2257612e21612455565b5b612e2e88828901612d76565b9150509295509295909350565b60007fffffffff0000000000000000000000000000000000000000000000000000000082169050919050565b612e7081612e3b565b82525050565b6000602082019050612e8b6000830184612e67565b92915050565b600060208284031215612ea757612ea6612450565b5b6000612eb5848285016125df565b91505092915050565b60008060008060808587031215612ed857612ed7612450565b5b6000612ee6878288016125df565b9450506020612ef787828801612615565b9350506040612f0887828801612615565b9250506060612f198782880161282a565b91505092959194509250565b7f4e487b7100000000000000000000000000000000000000000000000000000000600052603260045260246000fd5b7f4e487b7100000000000000000000000000000000000000000000000000000000600052601160045260246000fd5b6000612f8e826125f4565b9150612f99836125f4565b925082821015612fac57612fab612f54565b5b828203905092915050565b612fc0816125f4565b82525050565b600082825260208201905092915050565b50565b6000612fe7600083612fc6565b9150612ff282612fd7565b600082019050919050565b600060a0820190506130126000830187612a36565b61301f6020830186612a36565b61302c6040830185612fb7565b6130396060830184612fb7565b818103608083015261304a81612fda565b905095945050505050565b600060808201905061306a6000830187612a36565b6130776020830186612a36565b6130846040830185612fb7565b6130916060830184612fb7565b95945050505050565b600060ff82169050919050565b6130b08161309a565b81146130bb57600080fd5b50565b6000815190506130cd816130a7565b92915050565b6000602082840312156130e9576130e8612450565b5b60006130f7848285016130be565b91505092915050565b60008160011c9050919050565b6000808291508390505b60018511156131575780860481111561313357613132612f54565b5b60018516156131425780820291505b808102905061315085613100565b9450613117565b94509492505050565b600082613170576001905061322c565b8161317e576000905061322c565b8160018114613194576002811461319e576131cd565b600191505061322c565b60ff8411156131b0576131af612f54565b5b8360020a9150848211156131c7576131c6612f54565b5b5061322c565b5060208310610133831016604e8410600b84101617156132025782820a9050838111156131fd576131fc612f54565b5b61322c565b61320f848484600161310d565b9250905081840481111561322657613225612f54565b5b81810290505b9392505050565b600061323e826125f4565b91506132498361309a565b92506132767fffffffffffffffffffffffffffffffffffffffffffffffffffffffffffffffff8484613160565b905092915050565b6000613289826125f4565b9150613294836125f4565b9250817fffffffffffffffffffffffffffffffffffffffffffffffffffffffffffffffff04831182151516156132cd576132cc612f54565b5b828202905092915050565b60006040820190506132ed6000830185612a36565b6132fa6020830184612fb7565b9392505050565b60008151905061331081612940565b92915050565b60006020828403121561332c5761332b612450565b5b600061333a84828501613301565b91505092915050565b60006060820190506133586000830186612a36565b6133656020830185612a36565b6133726040830184612fb7565b949350505050565b600060408201905061338f6000830185612a36565b61339c6020830184612a36565b9392505050565b60006020820190506133b86000830184612fb7565b92915050565b6000815190506133cd816125c8565b92915050565b6000602082840312156133e9576133e8612450565b5b60006133f7848285016133be565b91505092915050565b60008151905061340f816125fe565b92915050565b60006020828403121561342b5761342a612450565b5b600061343984828501613400565b91505092915050565b600061344d826125f4565b9150613458836125f4565b9250827fffffffffffffffffffffffffffffffffffffffffffffffffffffffffffffffff0382111561348d5761348c612f54565b5b828201905092915050565b600082825260208201905092915050565b7f4f776e61626c653a206e6577206f776e657220697320746865207a65726f206160008201527f6464726573730000000000000000000000000000000000000000000000000000602082015250565b6000613505602683613498565b9150613510826134a9565b604082019050919050565b60006020820190508181036000830152613534816134f8565b9050919050565b600060a0820190506135506000830188612a36565b61355d6020830187612a36565b61356a6040830186612fb7565b6135776060830185612fb7565b6135846080830184612fb7565b9695505050505050565b7f4f776e61626c653a2063616c6c6572206973206e6f7420746865206f776e6572600082015250565b60006135c4602083613498565b91506135cf8261358e565b602082019050919050565b600060208201905081810360008301526135f3816135b7565b905091905056fea26469706673582212205fb70fe02322757ab42179a0d3f39f0eb6d28a4610d09c45f6c214e9bc5e283864736f6c63430008090033",
  "linkReferences": {},
  "deployedLinkReferences": {}
}